S010000050726F6A65746F312E7372656300
S113000033C000004CC000004AC0000048C00000DB
S113001046C0000044C0000042C0000040C00000D0
S11300203EC000003CC000003AC000006BC10000AC
S113003036C0000034C0000032C0000030C00000F0
S11300402EC000002CC0000036C2000028C00000F2
S1130050F8C1000024C0000022C0000020C000003D
S11300601EC000001CC0000011241FBECFEFD8E04A
S1130070DEBFCDBF11E0A0E0B1E0EEE4FCE002C0E1
S113008005900D92A239B107D9F722E0A2E9B1E0B7
S113009001C01D92AE35B207E1F7CCD0D6C5B0CFC2
S11300A086E086BD81E085BBA89BFECF0895CF93F3
S11300B0DF93EC01892B19F0F3DF2197E9F7DF9146
S11300C0CF910895CF93C82F5A985B9A8BB18F70B4
S11300D09C2F907F892B8BB95B9881E090E0E7DFC0
S11300E05B9A8BB1282F2F7030E1C302C001112419
S11300F0822B8BB95B9881E090E0D9DF5B9A81E039
S113010090E0D5DFCF9108958AB18C6F8AB983E3EB
S1130110D9DF82E3D7DF88E2D5DF8EE0D3DF80E862
S1130120D1DF86E0CFDF81E0CDDF82E090E0BFCF9A
S1130130089581E0C7CF0895CF93DF9300D000D016
S1130140CDB7DEB790E8998390EC9A8394E99B83CA
S113015094ED9C83FE01E60FF11D81509081890F7F
S1130160B1DF81E090E0A3DF0F900F900F900F902C
S1130170DF91CF910895CF93C82F5B9A8BB18F7085
S11301809C2F907F892B8BB95B9881E090E08FDF67
S11301905B9A8BB1282F2F7030E1C302C001112468
S11301A0822B8BB95B9881E090E081DF5B9A81E0E0
S11301B090E07DDFCF910895CF93DF93EC015A9ABD
S11301C08881882329F02196D6DF89918111FCCF7B
S11301D0DF91CF91089510920101109200010895CA
S11301E081E090E090930101809300010895A1DFE4
S11301F08CE291E05CDF61E081E09EDF87E191E0E9
S1130200DBDF62E081E098DF8FE191E0D5DF88EE0B
S113021093E04DDF8091000190910101892B49F019
S11302208091920190919301892B11F0B1C10895AD
S113023082C1089514BC83E085BD66DFC3D0A0D419
S11302407AD152D043C0B2D086B190E09093950158
S11302508093940182E390E02ADF61D488318CF4A6
S11302605ED4873074F086B190E02091940130918F
S113027095018217930729F099D190939301809364
S113028092018091920190919301892BF9F08091D0
S1130290000190910101892BC9F041D489311CF4EA
S11302A03ED4863024F4109293011092920182E39A
S11302B090E0FDDE8091920190919301892B31F0C1
S11302C08091000190910101892B39F780910001FF
S11302D090910101892B09F0B6CF89DFF7CF1092F5
S11302E0930110929201089582E080936F008DE053
S11302F08093810084E89EE1909389008093880034
S1130300259A08951F920F920FB60F9211242F93DE
S11303103F934F935F936F937F938F939F93AF9389
S1130320BF93EF93FF938091980190919901019667
S11303309093990180939801029771F402D21092DC
S113034099011092980180919A0190919B010196D4
S113035090939B0180939A0180919A0190919B01C3
S11303608634910594F081E090E090939701809316
S1130370960195B180E2892785B980919A0190917F
S11303809B018A3591050CF0F6D1FF91EF91BF9155
S1130390AF919F918F917F916F915F914F913F9119
S11303A02F910F900FBE0F901F90189510929B01E4
S11303B010929A018091960190919701892B09F0EE
S11303C02D9808951092C50083E38093C400E0EC57
S11303D0F0E080818D7F8083E1ECF0E08081806CAF
S11303E08083808188618083E2ECF0E08081866094
S11303F080837894089516161706ECF4FC01680FB0
S1130400791F20919E0130919F019191D901AC54A3
S1130410BE4F9C932F5F3F4F2C33310528F430930C
S11304209F0120939E0104C010929F0110929E018F
S1130430E617F70731F78091C00085FD1092C600DA
S113044008951F920F920FB60F9211242F933F938A
S11304508F939F93EF93FF9380919C0190919D01C3
S113046020919E0130919F018217930779F0FC013E
S1130470EC54FE4F80818093C60080919C01909142
S11304809D01019690939D0180939C0180919C0114
S113049090919D01CC9720F010929D0110929C01A7
S11304A0FF91EF919F918F913F912F910F900FBEEC
S11304B00F901F9018951F920F920FB60F92112450
S11304C02F933F934F935F936F937F938F939F9358
S11304D0AF93BF93EF93FF936091A0017091A1013B
S11304E08091C600FB01EC50FE4F808384EF91E0C5
S11304F04ED18091A0019091A10101968D33910577
S113050028F49093A1018093A00104C01092A1014A
S11305101092A001FF91EF91BF91AF919F918F91A4
S11305207F916F915F914F913F912F910F900FBEEB
S11305300F901F901895FDDD62E081E0FDDD8DE2F6
S113054091E03ADE61E081E0F7DD84E391E034CECE
S11305500895CF93DF931F92CDB7DEB78EE08983E2
S113056062E070E08BE391E046DF61E070E0CE0191
S1130570019641DF67E070E08EE492E03CDF67E0E3
S113058070E085E592E037DF0F90DF91CF91089519
S1130590D0DD62E081E0D0DD8EE391E00DDE61E04C
S11305A081E0CADD8AE491E007CE0895CF93DF931A
S11305B0F4D280935C02C0910401D091050120978C
S11305C009F449C0882391F1833291F02091AD015F
S11305D03091AE01F901E25BFD4F80832F5F3F4F05
S11305E03093AE012093AD018CE592E0E5DD1EC0B1
S11305F08091AD019091AE01FC01E25BFD4F108250
S113060020E220935C021816190684F40197909353
S1130610AE018093AD0161E0895F8EDD8CE592E0EF
S1130620CBDD8091AD0161E0895F86DD8091AD0114
S11306309091AE01069709F07EC0109205011092C8
S113064004011092AE011092AD0162E087E074DD06
S1130650C0E0D0E072C0882391F1833291F0209100
S1130660AD013091AE01F901EB5AFD4F80832F5F4C
S11306703F4F3093AE012093AD0183E591E09CDDC3
S11306801EC08091AD019091AE01FC01EB5AFD4F6B
S1130690108220E220935C021816190684F4019754
S11306A09093AE018093AD0162E0895F45DD8CE5F6
S11306B092E082DD8091AD0162E0895F3DDD809151
S11306C0AD019091AE01069709F037C081E090E04A
S11306D090930501809304011092AE011092AD0134
S11306E061E087E029DD35DF80E991E0E0DC80919D
S11306F0A9019091AA01892BC1F4C3E0D0E019DDCE
S11307008CE291E0D4DC61E081E016DD85E591E0E6
S113071053DD88EE93E0CBDC219789F70CDF8091E1
S1130720A9019091AA01892B09F032DFC091A90196
S1130730D091AA0102C0C0E0D0E0CE01DF91CF91F8
S113074008958091A6018F5F8C3319F08093A601E0
S113075008951092A6018091A5018F5F8C3319F042
S11307608093A50108951092A5018091A4018F5F43
S11307708093A4010895DFDEB2DD1092AA011092E5
S1130780A90162E070E084E691E035CE0895AF926D
S1130790BF92CF92DF92EF92FF920F931F93CF936A
S11307A0DF93CDB7DEB72F970FB6F894DEBF0FBE39
S11307B0CDBF7C018B016115710531F40F2EFCE373
S11307C0CF2ED12CF02D01C06B01F0DD8091B3014F
S11307D0882309F442C08091B1019091B20101963D
S11307E09093B2018093B1011092A60181309105DA
S11307F039F4F701E00FF11F20812093A20114C006
S11308008230910539F4F701E00FF11F8081809364
S1130810A30123C08330910539F4F701E00FF11FE0
S113082080818093A40119C00497B9F4F701E00F03
S1130830F11F80818093A5011092B2011092B10141
S11308401092B30181E090E0909303018093020140
S113085062E070E087E691E0CEDD80910201909144
S11308600301892B09F4B8C05701A00EB11EF5018C
S113087080818C3469F4F701EC0DFD1D3197808182
S1130880833551F5ADDC62E070E08AE691E0B3DDDA
S1130890F5018081843571F4F701EC0DFD1D31976C
S11308A08081833509F03CC096DC62E070E08DE61F
S11308B091E0A1DDF5018081883471F4F701EC0D3C
S11308C0FD1D319780818335D9F581E08093B30193
S11308D01092030110920201F50180818F3491F48A
S11308E0F701EC0DFD1D31978081833549F581E0D9
S11308F090E09093B0018093AF01109203011092A5
S11309000201FCC0813461F4F701EC0DFD1D319747
S11309108081803529F562E070E080E791E06BDD4D
S1130920F5018081803561F4F701EC0DFD1D3197EF
S11309308081803529F562E070E083E791E05BDD3A
S1130940F5018081833461F4F701EC0DFD1D3197CD
S11309508081803509F562E070E086E791E04BDD47
S1130960F5018081863461F4F701EC0DFD1D3197AA
S11309708081803509F562E070E089E791E03BDD34
S1130980F5018081883541F4F701EC0DFD1D3197A7
S11309908081833509F5EFDEF5018081893461F4C6
S11309A0F701EC0DFD1D319780818035A9F462E0DB
S11309B070E08CE791E01FDDF5018081823461F401
S11309C0CE0CDF1CF601319780818C3429F462E06F
S11309D070E08FE791E00FDD8091AF019091B0015D
S11309E0009709F48BC08091A7019091A80100970A
S11309F0C9F420910201309103012115310509F058
S1130A0069C0F701E00FF11F8081082E000C990BDB
S1130A109093A8018093A7011092AA011092A901B2
S1130A20C9016CC02091AB013091AC01F701E00F1A
S1130A30F11F4081F901E05DFD4F40832F5F3F4F7F
S1130A403093AC012093AB018217930709F03FC0A8
S1130A502FE0E2E8F1E0DE01119601900D922A9573
S1130A60E1F718161906D4F47091A9016091AA014E
S1130A70E0E3F2E0DE011196AC01405D5D4F01E080
S1130A8010E031912D91321711F0702F612F4E1714
S1130A905F07B9F77093A9016093AA01FC01E05DB7
S1130AA0FD4F808381E090E09093030180930201E5
S1130AB01092B0011092AF011092AC011092AB01F0
S1130AC01092A8011092A70180E090E017C080E086
S1130AD090E014C02091AB013091AC01F701E00F1C
S1130AE0F11F4081F901E05DFD4F40832F5F3F4FCF
S1130AF03093AC012093AB01232B81F22F960FB6D8
S1130B00F894DEBF0FBECDBFDF91CF911F910F913F
S1130B10FF90EF90DF90CF90BF90AF9008958091B9
S1130B20A4010895CF93DF93D0E0C0E00AC085E02C
S1130B3090E0BDDA83B1D81302C0CF5F01C0C0E03A
S1130B40D82F80911601C813F2CF8D2FDF91CF914A
S1130B500895CF93DF93D0E0C0E00AC085E090E031
S1130B60A6DA86B1D81302C0CF5F01C0C0E0D82F87
S1130B7080911601C813F2CF8D2FDF91CF91089584
S1130B8084B18F6084B987B1807F87B985B1807F54
S1130B9085B988B18F6088B90895FF920F931F9328
S1130BA0CF93DF93D6DF082F880F110BE801C09590
S1130BB0D095CF70DD27209709F43CC084B1807FA5
S1130BC084B987B18F6087B985B18F6085B988B1E1
S1130BD0807F88B9A7DFF82ED3DFBBDF082E000C97
S1130BE0990B0817190741F58F2DFF0C990B809568
S1130BF090958F7099279C01209530952F703327FD
S1130C00232BE1F096958795D695C7958430910569
S1130C1011F483E090E0C430D10511F4C3E0D0E0D6
S1130C20880F991F880F991F8A5F9E4FC80FD91F7D
S1130C30888105C080E003C080E001C080E0DF91CE
S1110C40CF911F910F91FF900895F894FFCF6C
S1130C4E0100010001003132334134353642373868
S1130C5E39432A30234405464F5241204445004F20
S1130C6E5045524143414F00202020200053656ED1
S1130C7E68613A004C6F67696E3A00504F005175C7
S1130C8E616E7469646164653A0050726F64757460
S1130C9E6F3A002A004E414F204155544F52495A43
S1130CAE41444F00505800504800504C00505400DE
S1130CBE53410053500053430053460053490050D0
S1130CCE42004E616F204175746F72697A61646F70
S1050CDE000010
S9030000FC
